S01600005075626C697368436F6D706173732E7372656361
S11300000C94CC000C94E9000C94E9000C94E900E5
S11300100C94E9000C94E9000C94E9000C94E900B8
S11300200C94E9000C94E9000C94E9000C94E900A8
S11300300C94E9000C94E9000C94E9000C94E90098
S11300400C94E9000C94E9000C94E9000C94E90088
S11300500C94E9000C94E9000C94E9000C94E90078
S11300600C94E9000C94E900084AD73B3BCE016E9E
S113007084BCBFFDC12F3D6C74319ABD56833DDAFB
S11300803D00C77F11BED9E4BB4C3E916BAAAABE0A
S1130090000000803F006E616E00696E66000040E3
S11300A07A10F35A00A0724E18090010A5D4E80083
S11300B000E87648170000E40B54020000CA9A3B9B
S11300C0000000E1F5050000809698000000404221
S11300D00F000000A08601000000102700000000AF
S11300E0E803000000006400000000000A000000B3
S11300F000000100000000002C76D888DC674F085F
S113010023DFC1DFAE59E1B1B796E5E3E453C63A64
S1130110E651997696E8E6C28426EB898C9B62EDDB
S1130120407C6FFCEFBC9C9F40F2BAA56FA5F49095
S1130130055A2AF75C936B6CF9676DC11BFCE0E40C
S11301400D47FEF520E6B500D0ED902E0300943562
S113015077050080841E080000204E0A000000C8B5
S11301600C333333330F986E12831141EF8D211406
S1130170893BE65516CFFEE6DB18D1844B381BF7D6
S11301807C1D901DA4BBE424203284725E22810075
S1130190C9F124ECA1E53D2711241FBECFEFD8E01F
S11301A0DEBFCDBF11E0A0E0B1E0E0E8FAE102C0BB
S11301B005900D92A832B107D9F721E0A8E2B1E089
S11301C001C01D92AE32B207E1F70E946B030C949A
S11301D03E0D0C940000CF93DF93CDB7DEB789EBCF
S11301E090E0FC01108288EB90E022E0FC01208387
S11301F0DF91CF910895CF93DF9300D0CDB7DEB7D1
S11302008A838CEB90E024EAFC01208300008CEBD1
S113021090E0FC0180818823D4F789EB90E0FC0115
S11302208081887F89838981883029F08981803120
S113023011F081E020C08BEB90E02A81FC01208347
S11302408CEB90E024E8FC01208300008CEB90E030
S1130250FC0180818823D4F789EB90E0FC01808144
S1130260887F89838981883129F08981803411F0DC
S113027081E001C080E00F900F90DF91CF9108954D
S1130280CF93DF9300D0CDB7DEB78A838CEB90E0B9
S113029024EAFC01208300008CEB90E0FC018081C7
S11302A08823D4F789EB90E0FC018081887F8983DF
S11302B08981883021F08981803109F02FC08BEB4E
S11302C090E02A81FC0120838CEB90E024E8FC017F
S11302D0208300008CEB90E0FC0180818823D4F71C
S11302E089EB90E0FC018081887F89838981803259
S11302F019F08981883589F48CEB90E024E9FC01BC
S1130300208300008CEB90E0FC018081882F90E03A
S113031080719927892BB1F701C001C0B7CF0F9025
S11303200F90DF91CF910895CF93DF93CDB7DEB7D0
S11303308CEB90E024E9FC01208300008CEB90E03E
S1130340FC018081882F90E080719927892BB1F777
S1130350DF91CF910895CF93DF9300D0CDB7DEB76F
S11303608A838BEB90E02A81FC0120838CEB90E064
S113037024E8FC01208300008CEB90E0FC018081E8
S11303808823D4F789EB90E0FC018081887F8983FE
S11303908981883211F081E001C080E00F900F90D4
S11303A0DF91CF910895CF93DF93CDB7DEB78CEB78
S11303B090E024ECFC01208300008CEB90E0FC0135
S11303C080818823D4F78BEB90E0FC018081DF915E
S11303D0CF910895CF93DF93CDB7DEB78CEB90E048
S11303E024E8FC01208300008CEB90E0FC01808178
S11303F08823D4F78BEB90E0FC018081DF91CF91CF
S11304000895CF93DF93CDB7DEB72E970FB6F89448
S1130410DEBF0FBECDBF8CE30E94FB0080E00E94D4
S1130420AB0180E70E94AB0180E20E94AB0180E057
S11304300E94AB010E94940180E090E0A0E8BFE339
S113044089839A83AB83BC8320E030E04AEF54E491
S113045069817A818B819C810E94E306DC01CB0156
S11304608D839E83AF83B88720E030E040E85FE36C
S11304706D817E818F8198850E94500588232CF49C
S113048081E090E09A8789873FC020E03FEF4FE703
S113049057E46D817E818F8198850E94D606181657
S11304A04CF520E030E040E251E469817A818B81AF
S11304B09C810E94E306DC01CB01BC01CD010E94BA
S11304C0CE05DC01CB019A8789870FC088EC90E0C8
S11304D09C878B878B859C850197F1F79C878B87FD
S11304E089859A8501979A87898789859A85892B31
S11304F069F714C06D817E818F8198850E94CE0535
S1130500DC01CB019A87898789859A859E878D87A7
S11305108D859E850197F1F79E878D872E960FB660
S1130520F894DEBF0FBECDBFDF91CF9108950F9336
S11305301F93CF93DF9300D000D0CDB7DEB79C8359
S11305408B838CE30E94FB0083E00E94AB018DE36C
S11305500E9440010E94D301882F90E09A838983EE
S113056089819A81182F00270E94D301882F90E057
S1130570802B912B9A8389838B819C8129813A8159
S1130580FC01318320830E94D301882F90E09A8359
S1130590898389819A81182F00270E94D301882F8B
S11305A090E0802B912B9A8389838B819C81049684
S11305B029813A81FC01318320830E94D301882F51
S11305C090E09A83898389819A81182F00270E9459
S11305D0EA01882F90E0802B912B9A8389838B8169
S11305E09C81029629813A81FC01318320830E94F7
S11305F094010F900F900F900F90DF91CF911F9166
S11306000F910895CF93DF9300D01F92CDB7DEB73B
S113061089837B836A8389818A3081F4000080EC3A
S113062090E0FC018081882F90E080729927892BCB
S1130630B1F386EC90E02DE0FC012083000080EC17
S113064090E0FC018081882F90E080729927892BAB
S1130650B1F386EC90E02981FC01208380E090E0F6
S11306600F900F900F90DF91CF910895CF93DF9368
S1130670CDB7DEB781EC90E028E1FC01208382EC69
S113068090E026E0FC01208384EC90E023E330E05A
S1130690FC0131832083DF91CF910895CF93DF93C1
S11306A000D01F92CDB7DEB79B838A83000080EC15
S11306B090E0FC0180818823D4F786EC90E0FC0173
S11306C0808189838981882F90E00F900F900F900B
S11306D0DF91CF910895CF92DF92EF92FF92CF9363
S11306E0DF93CDB7DEB7A6970FB6F894DEBF0FBE83
S11306F0CDBF80E091E090932B0180932A018091FB
S11307002A0190912B0190932901809328010E9442
S113071036030E94EB000E9401028EE091E00E94E9
S1130720B00C80E090E8ABE3B5E48D839E83AF83A7
S1130730B88720E030E04AEF54E46D817E818F81F8
S113074098850E94E306DC01CB0189879A87AB87F1
S1130750BC8720E030E040E85FE369857A858B85DB
S11307609C850E94500588232CF481E090E09E87AC
S11307708D873FC020E03FEF4FE757E469857A85D6
S11307808B859C850E94D60618164CF520E030E037
S113079040E251E46D817E818F8198850E94E30659
S11307A0DC01CB01BC01CD010E94CE05DC01CB01F3
S11307B09E878D870FC088EC90E0988B8F878F85FC
S11307C098890197F1F7988B8F878D859E8501977E
S11307D09E878D878D859E85892B69F714C06985D1
S11307E07A858B859C850E94CE05DC01CB019E8792
S11307F08D878D859E859A8B898B89899A890197A6
S1130800F1F79A8B898BCE0181960E94970289A178
S11308109AA1092E000CAA0BBB0BBC01CD010E94AE
S1130820FF056B017C018DA19EA1092E000CAA0B72
S1130830BB0BBC01CD010E94FF05DC01CB01A7016C
S11308409601BC01CD010E94F104DC01CB0120E042
S113085030E044E353E4BC01CD010E94E306DC0133
S1130860CB012BED3FE049E450E4BC01CD010E94F3
S11308705505DC01CB0189839A83AB83BC836981F1
S11308807A818B819C810E94C705DC01CB01BC016C
S11308904DA15EA12BA13CA189A19AA1E72FEF93C1
S11308A06F93652F6F934F93432F4F932F93292F5C
S11308B02F938F938BE191E0892F8F938BE191E0BC
S11308C08F930E949A0C8DB79EB70A960FB6F89430
S11308D0DEBF0FBECDBF80E090E0A1E6B4E48B8B19
S11308E09C8BAD8BBE8B20E030E04AEF54E46B89E7
S11308F07C898D899E890E94E306DC01CB018F8B64
S1130900988FA98FBA8F20E030E040E85FE36F89C9
S1130910788D898D9A8D0E94500588232CF481E06E
S113092090E09C8F8B8F3FC020E03FEF4FE757E470
S11309306F89788D898D9A8D0E94D60618164CF58C
S113094020E030E040E251E46B897C898D899E8906
S11309500E94E306DC01CB01BC01CD010E94CE055F
S1130960DC01CB019C8F8B8F0FC088EC90E09E8FB5
S11309708D8F8D8D9E8D0197F1F79E8F8D8F8B8D31
S11309809C8D01979C8F8B8F8B8D9C8D892B69F708
S113099014C06F89788D898D9A8D0E94CE05DC01F3
S11309A0CB019C8F8B8F8B8D9C8D98A38F8F8F8D7C
S11309B098A10197F1F798A38F8F25CF0E948E06F7
S11309C060F080E891E009F49EEF0E94950628F01B
S11309D040E851E071F45EEF0CC00C9464060C9492
S11309E0CF06E92FE0780E94AD0640F3092E052AD0
S11309F0B1F3261737074807590738F00E2E07F8C2
S1130A00E02569F0E025E0640AC0EF6307F800948C
S1130A1007FADB01B9019D01DC01CA01AD01EF93C5
S1130A200E946C050E949C060E9421055F9155233B
S1130A3039F02BED3FE049E450FD49EC0C945507A7
S1130A400895DF93DD27B92FBF7740E85FE31616DB
S1130A50170648075B0718F4D92F0E94DB069F93FB
S1130A608F937F936F930E945007E8E6F0E00E9413
S1130A7067060E949C062F913F914F915F910E94BF
S1130A80F606DD2351F09058A2EA2AED3FE049EC46
S1130A905FE3D0785D270E946C07DF910C949C067D
S1130AA00E943A0608F481E008950E9469050C94B6
S1130AB09C060E94950658F00E948E0640F029F488
S1130AC05F3F29F00C945E0651110C94D0060C94EF
S1130AD064060E94AD0668F39923B1F3552391F39C
S1130AE0951B550BBB27AA2762177307840738F099
S1130AF09F5F5F4F220F331F441FAA1FA9F335D0F6
S1130B000E2E3AF0E0E832D091505040E695001CA9
S1130B10CAF72BD0FE2F29D0660F771F881FBB1F63
S1130B20261737074807AB07B0E809F0BB0B802D41
S1130B30BF01FF2793585F4F3AF09E3F510578F06D
S1130B400C945E060C94D0065F3FE4F3983ED4F315
S1130B50869577956795B795F7959F5FC9F7880F41
S1130B60911D9695879597F90895E1E0660F771F93
S1130B70881FBB1F621773078407BA0720F0621B24
S1130B80730B840BBA0BEE1F88F7E09508950E944F
S1130B90CE056894B1110C94D00608950E94B50650
S1130BA088F09F5798F0B92F9927B751B0F0E1F02A
S1130BB0660F771F881F991F1AF0BA95C9F714C0DA
S1130BC0B13091F00E94CF06B1E008950C94CF06A5
S1130BD0672F782F8827B85F39F0B93FCCF3869513
S1130BE077956795B395D9F73EF490958095709570
S1130BF061957F4F8F4F9F4F0895E89409C097FBED
S1130C003EF490958095709561957F4F8F4F9F4FDF
S1130C109923A9F0F92F96E9BB279395F695879523
S1130C2077956795B795F111F8CFFAF4BB0F11F4E6
S1130C3060FF1BC06F5F7F4F8F4F9F4F16C088238D
S1130C4011F096E911C0772321F09EE8872F762FC3
S1130C5005C0662371F096E8862F70E060E02AF004
S1130C609A95660F771F881FDAF7880F96958795F0
S1130C7097F90895990F0008550FAA0BE0E8FEEFC5
S1130C8016161706E807F907C0F012161306E4074C
S1130C90F50798F0621B730B840B950B39F40A2645
S1130CA061F0232B242B252B21F408950A2609F423
S1130CB0A140A6958FEF811D811D089597F99F6727
S1130CC080E870E060E008959FEF80EC0895DF9382
S1130CD0CF931F930F93FF92EF92DF927B018C01CE
S1130CE0689406C0DA2EEF010E94F606FE01E8942D
S1130CF0A5912591359145915591A6F3EF010E9457
S1130D006C07FE019701A801DA9469F7DF90EF9070
S1130D10FF900F911F91CF91DF91089500240A94C1
S1130D201616170618060906089500240A941216C2
S1130D301306140605060895092E0394000C11F4F5
S1130D40882352F0BB0F40F4BF2B11F460FF04C0A2
S1130D506F5F7F4F8F4F9F4F089557FD9058440FFB
S1130D60551F59F05F3F71F04795880F97FB991F06
S1130D7061F09F3F79F087950895121613061406C3
S1130D80551FF2CF4695F1DF08C016161706180650
S1130D90991FF1CF86957105610508940895E8942B
S1130DA0BB2766277727CB0197F908950E943A0657
S1130DB008F48FEF08959B01AC0160E070E080E8D7
S1130DC09FE30C9455050E94F6060C949C060E9421
S1130DD08E0638F00E94950620F0952311F00C94AD
S1130DE05E060C94640611240C94D0060E94AD0691
S1130DF070F3959FC1F3950F50E0551F629FF0016A
S1130E00729FBB27F00DB11D639FAA27F00DB11D82
S1130E10AA1F649F6627B00DA11D661F829F22270B
S1130E20B00DA11D621F739FB00DA11D621F839F92
S1130E30A00D611D221F749F3327A00D611D231F68
S1130E40849F600D211D822F762F6A2F11249F57B6
S1130E5050409AF0F1F088234AF0EE0FFF1FBB1FB9
S1130E60661F771F881F91505040A9F79E3F510578
S1130E7080F00C945E060C94D0065F3FE4F3983E39
S1130E80D4F3869577956795B795F795E7959F5F22
S1130E90C1F7FE2B880F911D9695879597F90895B4
S1130EA09B01AC010C94E3065058BB27AA270E946F
S1130EB06C070C949C060E948E0638F00E949506DE
S1130EC020F039F49F3F19F426F40C9464060EF4D0
S1130ED0E095E7FB0C945E06E92F0E94AD0658F3FB
S1130EE0BA17620773078407950720F079F4A6F50B
S1130EF00C94CF060EF4E0950B2EBA2FA02D0B0107
S1130F00B90190010C01CA01A0011124FF27591B4A
S1130F1099F0593F50F4503E68F11A16F040A22F50
S1130F20232F342F4427585FF3CF469537952795C1
S1130F30A795F0405395C9F77EF41F16BA0B620BC0
S1130F40730B840BBAF09150A1F0FF0FBB1F661F07
S1130F50771F881FC2F70EC0BA0F621F731F841F4A
S1130F6048F4879577956795B795F7959E3F08F070
S1130F70B0CF9395880F08F09927EE0F9795879532
S1130F800895A3E1B0E0E7ECF7E00C943D0B6C01AD
S1130F904B012A01FC0117821682838181FF43C31E
S1130FA0AE014F5F5F4F3A01F6019381F40193FD67
S1130FB0859193FF81914F01882309F430C38532D1
S1130FC039F493FD859193FF81914F01853239F472
S1130FD0B60190E00E94620C52012501E5CF10E0B9
S1130FE0F12C20E02032A0F48B3269F030F480320E
S1130FF059F0833269F420612CC08D3239F080338A
S113100039F4216026C02260246023C0286021C0F6
S113101027FD27C030ED380F3A3078F426FF06C09C
S1131020FAE01F9F300D1124132F13C04AE0F49EE1
S1131030300D1124F32E20620CC08E3221F426FDD3
S1131040EEC2206406C08C3611F4206802C08836D3
S113105041F4F40193FD859193FF81914F01811136
S1131060C1CF9BEB980F933018F42061805E06C0CB
S11310709BE9980F933008F071C12F7E26FF16E08C
S11310802F73322E853619F42064322E08C086362A
S113109021F4F22FF0683F2E02C01111115037FED7
S11310A007C01C3350F4EE24E394E10E27E00BC098
S11310B0183038F027E017E005C027E04CE3E42EB1
S11310C002C0212FE12C520144E0A40EB11CF20114
S11310D060817181828193810E2DA3010E94740B22
S11310E02C01098100FF02C003FF07C031FC08C0C6
S11310F032FE09C030E2232E07C02DE2222E04C0A6
S11311009BE2292E01C0212C802F8C7019F0211014
S113111068C2A8C237FE0FC0E40C04FF04C08A8171
S1131120813309F4EA941E1474F5F8E0FE1578F599
S113113088E0E82E2CC036FC2AC0812F90E084156C
S113114095059CF02CEF42162FEF520674F0432DB8
S11311504068342E0AC0E2E0F0E0EC0FFD1FE10F1E
S1131160F11D8081803319F411501111F4CF37FE31
S11311700EC0EE24E394E10E812F90E04816590648
S11311802CF4141904C0EE24E39401C010E037FEDB
S113119006C01414150434F4C201019605C085E098
S11311A090E002C081E090E021100196112331F01B
S11311B0212F30E02F5F3F4F820F931F2F2D30E000
S11311C08217930714F4F81A01C0F12C832D897047
S11311D049F4FF2039F0B60180E290E00E94620CED
S11311E0FA94F7CF222029F0B601822D90E00E94D4
S11311F0620C33FC09C0FF2039F0B60180E390E0B3
S11312000E94620CFA94F7CF37FE5AC0942D852DB4
S113121057FE02C090E080E0292E382E20E030E016
S1131220A2014E1951095D874C87A2014219530945
S11312305F874E87612F70E044275527461B570B65
S1131240598B488B5FEF2516350649F4B6018EE2BB
S113125090E02A8B3B8B0E94620C3B892A894214C2
S113126053046CF04C855D854215530544F4EE85BA
S1131270FF85E20FF31FE60DF71D818101C080E3B6
S113128051E0251A31082F5F3F4F488959892416A8
S113129035064CF0B60190E02A8B3B8B0E94620C21
S11312A02A893B89CFCF2414350439F49A819633A3
S11312B018F4953311F404FF81E3B60190E04BC0B8
S11312C08A81813309F00F7EB60190E00E94620C9E
S11312D0111105C034FC18C085E690E017C0B601B2
S11312E08EE290E00E94620C82E0EE24E394E80E29
S11312F0F301E80FF11D8081B60190E00E94620CB9
S113130011508E2D91F7E6CF85E490E0B6010E944E
S1131310620C57FC05C04114510439F404FF05C0A4
S11313205194419451088DE201C08BE2B60190E0E2
S11313300E94620C80E39AE0491651042CF08F5FFE
S11313405AE0451A5108F7CFB60190E00E94620CAA
S1131350B601C201C0960E94620C57C1833631F0B7
S1131360833779F0833509F058C021C05201E2E097
S1131370AE0EB11CF2018081898301E010E02301EB
S113138014C05201F2E0AF0EB11CF2014080518052
S113139026FF03C0612F70E002C06FEF7FEFC20130
S11313A02A8B0E94570C8C012A892F7715C0520171
S11313B0F2E0AF0EB11CF2014080518026FF03C061
S11313C0612F70E002C06FEF7FEFC2012A8B0E9491
S11313D04C0C8C012A892068322E23FD1AC08F2DD3
S11313E090E008171907A8F4B60180E290E00E9483
S11313F0620CFA94F4CFF20137FC859137FE8191A7
S11314002F01B60190E00E94620CF110FA94015091
S113141011090115110579F7F8C0843611F08936E0
S113142059F5520127FF09C0F4E0AF0EB11CF201D7
S113143060817181828193810AC0F2E0AF0EB11C98
S1131440F20160817181072E000C880B990B2F76B5
S1131450322E97FF09C090958095709561957F4FC6
S11314608F4F9F4F2068322E2AE030E0A3010E9464
S1131470E00CE82EE6183FC0022F853721F40F7EDA
S11314802AE030E01DC0097F8F3691F018F48835CA
S113149059F0C5C0803719F0883711F0C0C0006119
S11314A004FF09C0046007C024FF08C0066006C02A
S11314B028E030E005C020E130E002C020E132E065
S11314C0520107FF09C0F4E0AF0EB11CF2016081C4
S11314D071818281938108C0F2E0AF0EB11CF201E8
S11314E06081718180E090E0A3010E94E00CE82E0D
S11314F0E6180F77302E36FE0BC0332D3E7FE116F3
S113150050F434FE0AC032FC08C0332D3E7E05C0C0
S11315100E2D332D03C00E2D01C0012F34FF0CC03E
S1131520FE01EE0DF11D8081803311F4397E08C077
S113153032FF05C00E5F04C0832F867809F00F5F69
S113154033FD13C030FF06C01E2D0F1518F41F0DF8
S1131550101B0F2D0F1568F4B60180E290E03B8B51
S11315600E94620C0F5F3B89F5CF0F1510F4F01A3F
S113157001C0F12C34FF12C0B60180E390E03B8B34
S11315800E94620C3B8932FF17C031FD03C088E71B
S113159090E002C088E590E0B6010CC0832F867805
S11315A059F031FF02C08BE201C080E237FD8DE2C9
S11315B0B60190E00E94620CE11638F4B60180E3B3
S11315C090E00E94620C1150F7CFEA94F301EE0D03
S11315D0F11D8081B60190E00E94620CE110F5CF0C
S11315E014C0F4E0FF1558F584E0F81A33FE1EC069
S11315F0211026C003FF2AC006E910E0F32DF07184
S11316003F2EF8018491811124C0FF2009F4E5CC18
S1131610B60180E290E00E94620CFA94F6CFF601E3
S11316208681978126C08FEF9FEF23C0B60180E2A9
S113163090E00E94620CFA94F110F8CFD9CFF12C0B
S1131640B601822D90E00E94620CD4CF0AE910E02A
S1131650D5CF31108052B60190E00E94620C0F5F2A
S11316601F4FCFCF23E02F1510F483E0BECFF12C12
S1131670C1CF6396E2E10C94590B2F923F924F92A3
S11316805F926F927F928F929F92AF92BF92CF920E
S1131690DF92EF92FF920F931F93CF93DF93CDB717
S11316A0DEB7CA1BDB0B0FB6F894DEBF0FBECDBF8F
S11316B009942A88398848885F846E847D848C8460
S11316C09B84AA84B984C884DF80EE80FD800C8169
S11316D01B81AA81B981CE0FD11D0FB6F894DEBF4C
S11316E00FBECDBFED010895283008F027E0332761
S11316F0DA01990F311D87FD91600096610571052E
S113170039F432602E5F3D9330E32A95E1F7089572
S11317109F3F30F080387105610509F03C5F3C5F04
S11317203D93913008F08068911DDF93CF931F9310
S11317300F93FF92EF92192F987F9695E92F969524
S11317409695E90FFF27E850FF4F99273327EE249A
S1131750FF24A701E70105900894079428F4360FA5
S1131760E71EF81E491F511D660F771F881F991F1A
S11317700694A1F70590079428F4E70EF81E491F74
S1131780561FC11D770F881F991F661F0694A1F766
S11317900590079428F4F80E491F561FC71FD11D42
S11317A0880F991F661F771F0694A1F70590079469
S11317B020F4490F561FC71FD81F990F661F771FA4
S11317C0881F0694A9F784911095177041F0D69557
S11317D0C79557954795F794E7941A95C1F7EEE99D
S11317E0F0E0689415901591359165919591059067
S11317F07FE27395E118F10A430B560BC90BD0092C
S1131800C0F7E10CF11E431F561FC91FD01D7EF403
S1131810703311F48A95E6CFE894015030F0080F44
S11318200AF40027021708F4202F2395022F7A3395
S113183028F079E37D932A95E9F710C07D932A95E2
S113184089F6069497956795379517951794E11837
S1131850F10A430B560BC90BD00998F023957E91DE
S113186073957A3308F070E37C932013B8F77E9174
S113187070617D9330F0839571E37D9370E32A95D5
S1131880E1F71124EF90FF900F911F91CF91DF9119
S1131890992787FD90950895FC010590615070404B
S11318A00110D8F7809590958E0F9F1F0895FC0125
S11318B06150704001900110D8F7809590958E0F7B
S11318C09F1F08950F931F93CF93DF93FB012381F1
S11318D021FD03C08FEF9FEF28C022FF16C0468171
S11318E05781248135814217530744F4A081B18183
S11318F09D012F5F3F4F318320838C932681378155
S11319002F5F3F4F3783268310C0EB01092F182F19
S11319100084F185E02D0995892BE1F68E819F8164
S113192001969F838E83812F902FDF91CF911F91FA
S11319300F910895A0E0B0E0E0EAFCE00C944D0BB8
S1131940AE014B5F5F4FFA0161917191AF018091DC
S11319502A0190912B010E94C107E2E00C94690BCB
S11319600F931F93CF93DF93E0912A01F0912B0102
S1131970238121FF1BC08C01D0E0C0E0F8018191DC
S11319808F0160912A0170912B01DB011896ED9172
S1131990FC911997882331F00995892B79F3DFEFAE
S11319A0CFEFECCF8AE00995892B19F08FEF9FEFE9
S11319B002C08D2F9C2FDF91CF911F910F9108951D
S11319C0FA01AA27283051F1203181F1E8946F936C
S11319D06E7F6E5F7F4F8F4F9F4FAF4FB1E03ED012
S11319E0B4E03CD0670F781F891F9A1FA11D680FB0
S11319F0791F8A1F911DA11D6A0F711D811D911DE3
S1131A00A11D20D009F468943F912AE0269F112457
S1131A103019305D3193DEF6CF010895462F4770BB
S1131A20405D4193B3E00FD0C9F7F6CF462F4F7016
S1131A30405D4A3318F0495D31FD4052419302D074
S1131A40A9F7EACFB4E0A69597958795779567951A
S1131A50BA95C9F700976105710508959B01AC011A
S1131A600A2E06945795479537952795BA95C9F741
S1131A70620F731F841F951FA01D0895F894FFCF54
S1131A80000000030000000002034E03000048654C
S1131A906C6C6F20776F726C642100256409256477
S10B1AA00925640925640A000C
S9030000FC
