S01600005075626C697368436F6D706173732E7372656361
S11300000C94CC000C94E9000C94E9000C94E900E5
S11300100C94E9000C94E9000C94E9000C94E900B8
S11300200C94E9000C94E9000C94E9000C94E900A8
S11300300C94E9000C94E9000C94E9000C94E90098
S11300400C94E9000C94E9000C94E9000C94E90088
S11300500C94E9000C94E9000C94E9000C94E90078
S11300600C94E9000C94E900084AD73B3BCE016E9E
S113007084BCBFFDC12F3D6C74319ABD56833DDAFB
S11300803D00C77F11BED9E4BB4C3E916BAAAABE0A
S1130090000000803F006E616E00696E66000040E3
S11300A07A10F35A00A0724E18090010A5D4E80083
S11300B000E87648170000E40B54020000CA9A3B9B
S11300C0000000E1F5050000809698000000404221
S11300D00F000000A08601000000102700000000AF
S11300E0E803000000006400000000000A000000B3
S11300F000000100000000002C76D888DC674F085F
S113010023DFC1DFAE59E1B1B796E5E3E453C63A64
S1130110E651997696E8E6C28426EB898C9B62EDDB
S1130120407C6FFCEFBC9C9F40F2BAA56FA5F49095
S1130130055A2AF75C936B6CF9676DC11BFCE0E40C
S11301400D47FEF520E6B500D0ED902E0300943562
S113015077050080841E080000204E0A000000C8B5
S11301600C333333330F986E12831141EF8D211406
S1130170893BE65516CFFEE6DB18D1844B381BF7D6
S11301807C1D901DA4BBE424203284725E22810075
S1130190C9F124ECA1E53D2711241FBECFEFD8E01F
S11301A0DEBFCDBF11E0A0E0B1E0E4E6F5E102C0BE
S11301B005900D92A836B107D9F721E0A8E6B1E081
S11301C001C01D92AE36B207E1F70E943D020C94C5
S11301D0B00A0C9400001092B90082E08093B80039
S11301E0089594EA9093BC00ECEBF0E0908199239D
S11301F0ECF79091B900987F983011F09031A1F408
S11302008093BB0084E88093BC00ECEBF0E0808139
S11302108823ECF79091B900987F983139F081E008
S1130220903429F480E0089581E0089580E00895F1
S1130230CF93DF93ECEBF0E024EAA9EBB0E0CBEB57
S1130240D0E034E844E9208390819923ECF79C9131
S1130250987F983011F09031B1F788833083908182
S11302609923ECF79C91987F903211F0983529F4FA
S11302704083908194FDFDCFE6CFDF91CF91089527
S113028084E98093BC00ECEBF0E0808184FDFDCF39
S113029008958093BB0084E88093BC00ECEBF0E00D
S11302A080818823ECF79091B900987F81E098329F
S11302B009F480E0089584EC8093BC00ECEBF0E05A
S11302C080818823ECF78091BB00089584E88093B3
S11302D0BC00ECEBF0E080818823ECF78091BB005C
S11302E008958A3041F4E0ECF0E0908195FFFDCF71
S11302F09DE09093C600E0ECF0E0908195FFFDCF87
S11303008093C60080E090E00895E0ECF0E0808106
S11303108823ECF78091C60090E008958CE30E9456
S1130320F10080E00E94490180E70E94490180E2D7
S11303300E94490180E00E9449010E9440018FEC23
S113034097E00197F1F700C0000008950F931F9301
S1130350CF93DF938C018CE30E94F10083E00E9431
S113036049018DE30E9418010E945B01C82FD0E06F
S1130370DC2FCC270E945B01C82BF801D183C083FA
S11303800E945B01C82FD0E0DC2FCC270E945B01C8
S1130390C82BF801D583C4830E945B01C82FD0E029
S11303A0DC2FCC270E946601C82BF801D383C283BB
S11303B00E944001DF91CF911F910F91089588E130
S11303C08093C10086E08093C20083E390E0909321
S11303D0C5008093C40008958F929F92AF92BF92FC
S11303E0EF92FF920F931F93CF93DF937C01FC0155
S11303F001900020E9F731974F01881A990AA12C3E
S1130400B12CCEEFDFEF00E010E080E090E00E943E
S11304108501F701E00FF11F908198130AC00F5F67
S11304201F4FC801A0E0B0E088159905AA05BB05D7
S113043021F0219751F780E001C081E0DF91CF9155
S11304401F910F91FF90EF90BF90AF909F908F906E
S11304500895CF93DF93EB019F938F930E943C0AFF
S1130460CE010E94EC0191E00F900F90811101C028
S113047090E0892FDF91CF910895CF93DF9300D03F
S113048000D000D0CDB7DEB7E8E6F1E080E091E03F
S113049093838283918380830E94DF010E94EB0017
S11304A00E948E0160E070E08EE491E00E942902D7
S11304B02FEF8DE399E4215080409040E1F700C094
S11304C000000F2EFBE5CF2EF1E0DF2EF02DCE0144
S11304D001960E94A60109811A81ED80FE80B8016F
S11304E0012E000C880B990B0E94CA034B015C017E
S11304F0B7010F2C000C880B990B0E94CA03A501AD
S113050094010E94C10220E030E044E353E40E94DD
S113051085042BED3FE049E450E40E9420030E944F
S113052092037F936F93FF92EF928C818F938B81D1
S11305308F931F930F93DF92CF920E943C0A2FEF69
S113054088EF95E1215080409040E1F700C0000021
S11305500FB6F894DEBF0FBECDBFB9CF0E943504ED
S113056060F080E891E009F49EEF0E943C0428F0DA
S113057040E851E071F45EEF0CC00C940B040C9451
S11305807604E92FE0780E94540440F3092E052AEA
S1130590B1F3261737074807590738F00E2E07F826
S11305A0E02569F0E025E0640AC0EF6307F80094F1
S11305B007FADB01B9019D01DC01CA01AD01EF932A
S11305C00E9437030E9443040E94F1025F91552365
S11305D039F02BED3FE049E450FD49EC0C94F7046D
S11305E00895DF93DD27B92FBF7740E85FE3161640
S11305F0170648075B0718F4D92F0E947D049F93C0
S11306008F937F936F930E94F204E8E6F0E00E94D8
S11306100E040E9443042F913F914F915F910E94D9
S11306209804DD2351F09058A2EA2AED3FE049EC0A
S11306305FE3D0785D270E940E05DF910C9443049C
S11306400E9434030C9443040E943C0458F00E941A
S1130650350440F029F45F3F29F00C94050451114E
S11306600C9477040C940B040E94540468F39923AB
S1130670B1F3552391F3951B550BBB27AA2762179A
S11306807307840738F09F5F5F4F220F331F441FA7
S1130690AA1FA9F335D00E2E3AF0E0E832D09150DB
S11306A05040E695001CCAF72BD0FE2F29D0660FC8
S11306B0771F881FBB1F261737074807AB07B0E80B
S11306C009F0BB0B802DBF01FF2793585F4F3AF011
S11306D09E3F510578F00C9405040C9477045F3F19
S11306E0E4F3983ED4F3869577956795B795F79597
S11306F09F5FC9F7880F911D9695879597F908957F
S1130700E1E0660F771F881FBB1F6217730784071A
S1130710BA0720F0621B730B840BBA0BEE1F88F729
S1130720E09508950E9499036894B1110C9477049C
S113073008950E945C0488F09F5798F0B92F992778
S1130740B751B0F0E1F0660F771F881F991F1AF0B8
S1130750BA95C9F714C0B13091F00E947604B1E0A3
S113076008950C947604672F782F8827B85F39F0A2
S1130770B93FCCF3869577956795B395D9F73EF451
S113078090958095709561957F4F8F4F9F4F0895F9
S1130790E89409C097FB3EF4909580957095619517
S11307A07F4F8F4F9F4F9923A9F0F92F96E9BB27CD
S11307B09395F695879577956795B795F111F8CF49
S11307C0FAF4BB0F11F460FF1BC06F5F7F4F8F4FB4
S11307D09F4F16C0882311F096E911C0772321F0AA
S11307E09EE8872F762F05C0662371F096E8862F42
S11307F070E060E02AF09A95660F771F881FDAF799
S1130800880F9695879597F9089597F99F6780E8DB
S113081070E060E008959FEF80EC0895DF93CF933C
S11308201F930F93FF92EF92DF927B018C016894E8
S113083006C0DA2EEF010E949804FE01E894A59107
S11308402591359145915591A6F3EF010E940E052E
S1130850FE019701A801DA9469F7DF90EF90FF9009
S11308600F911F91CF91DF91089500240A941616D9
S1130870170618060906089500240A94121613068A
S1130880140605060895092E0394000C11F4882318
S113089052F0BB0F40F4BF2B11F460FF04C06F5F34
S11308A07F4F8F4F9F4F089557FD9058440F551F0A
S11308B059F05F3F71F04795880F97FB991F61F0DE
S11308C09F3F79F087950895121613061406551F55
S11308D0F2CF4695F1DF08C0161617061806991FC1
S11308E0F1CF86957105610508940895E894BB27B6
S11308F066277727CB0197F908959B01AC0160E047
S113090070E080E89FE30C9420030E9498040C9408
S113091043040E94350438F00E943C0420F09523DF
S113092011F00C9405040C940B0411240C9477041A
S11309300E94540470F3959FC1F3950F50E0551F26
S1130940629FF001729FBB27F00DB11D639FAA2720
S1130950F00DB11DAA1F649F6627B00DA11D661F6F
S1130960829F2227B00DA11D621F739FB00DA11D90
S1130970621F839FA00D611D221F749F3327A00D4A
S1130980611D231F849F600D211D822F762F6A2FE6
S113099011249F5750409AF0F1F088234AF0EE0F4B
S11309A0FF1FBB1F661F771F881F91505040A9F778
S11309B09E3F510580F00C9405040C9477045F3F2E
S11309C0E4F3983ED4F3869577956795B795F795B4
S11309D0E7959F5FC1F7FE2B880F911D969587952C
S11309E097F908959B01AC010C9485045058BB27DA
S11309F0AA270E940E050C9443040E94350438F083
S1130A000E943C0420F039F49F3F19F426F40C941E
S1130A100B040EF4E095E7FB0C940504E92F0E9407
S1130A20540458F3BA17620773078407950720F034
S1130A3079F4A6F50C9476040EF4E0950B2EBA2FF7
S1130A40A02D0B01B90190010C01CA01A0011124D0
S1130A50FF27591B99F0593F50F4503E68F11A167C
S1130A60F040A22F232F342F4427585FF3CF46950D
S1130A7037952795A795F0405395C9F77EF41F162F
S1130A80BA0B620B730B840BBAF09150A1F0FF0FF9
S1130A90BB1F661F771F881FC2F70EC0BA0F621FE5
S1130AA0731F841F48F4879577956795B795F795D5
S1130AB09E3F08F0B0CF9395880F08F09927EE0F6A
S1130AC0979587950895A3E1B0E0E9E6F5E00C94E5
S1130AD0DF086C014B012A01FC0117821682838115
S1130AE081FF43C3AE014F5F5F4F3A01F60193812B
S1130AF0F40193FD859193FF81914F01882309F4BB
S1130B0030C3853239F493FD859193FF81914F0170
S1130B10853239F4B60190E00E94040A520125019D
S1130B20E5CF10E0F12C20E02032A0F48B3269F004
S1130B3030F4803259F0833269F420612CC08D3254
S1130B4039F0803339F4216026C02260246023C048
S1130B50286021C027FD27C030ED380F3A3078F4E3
S1130B6026FF06C0FAE01F9F300D1124132F13C077
S1130B704AE0F49E300D1124F32E20620CC08E3214
S1130B8021F426FDEEC2206406C08C3611F42068E0
S1130B9002C0883641F4F40193FD859193FF81915D
S1130BA04F018111C1CF9BEB980F933018F4206152
S1130BB0805E06C09BE9980F933008F071C12F7EC8
S1130BC026FF16E02F73322E853619F42064322E58
S1130BD008C0863621F4F22FF0683F2E02C01111AE
S1130BE0115037FE07C01C3350F4EE24E394E10E99
S1130BF027E00BC0183038F027E017E005C027E0E5
S1130C004CE3E42E02C0212FE12C520144E0A40E57
S1130C10B11CF20160817181828193810E2DA30147
S1130C200E9416092C01098100FF02C003FF07C0BE
S1130C3031FC08C032FE09C030E2232E07C02DE289
S1130C40222E04C09BE2292E01C0212C802F8C70FF
S1130C5019F0211068C2A8C237FE0FC0E40C04FFCB
S1130C6004C08A81813309F4EA941E1474F5F8E00F
S1130C70FE1578F588E0E82E2CC036FC2AC0812FBA
S1130C8090E0841595059CF02CEF42162FEF520648
S1130C9074F0432D4068342E0AC0E2E0F0E0EC0F1B
S1130CA0FD1FE10FF11D8081803319F411501111E2
S1130CB0F4CF37FE0EC0EE24E394E10E812F90E0D2
S1130CC0481659062CF4141904C0EE24E39401C008
S1130CD010E037FE06C01414150434F4C201019662
S1130CE005C085E090E002C081E090E0211001960B
S1130CF0112331F0212F30E02F5F3F4F820F931FDC
S1130D002F2D30E08217930714F4F81A01C0F12C48
S1130D10832D897049F4FF2039F0B60180E290E018
S1130D200E94040AFA94F7CF222029F0B601822DFA
S1130D3090E00E94040A33FC09C0FF2039F0B60198
S1130D4080E390E00E94040AFA94F7CF37FE5AC079
S1130D50942D852D57FE02C090E080E0292E382E78
S1130D6020E030E0A2014E1951095D874C87A201B1
S1130D70421953095F874E87612F70E04427552736
S1130D80461B570B598B488B5FEF2516350649F4E4
S1130D90B6018EE290E02A8B3B8B0E94040A3B89C9
S1130DA02A89421453046CF04C855D854215530521
S1130DB044F4EE85FF85E20FF31FE60DF71D8181F4
S1130DC001C080E351E0251A31082F5F3F4F488965
S1130DD05989241635064CF0B60190E02A8B3B8BDA
S1130DE00E94040A2A893B89CFCF2414350439F49C
S1130DF09A81963318F4953311F404FF81E3B60114
S1130E0090E04BC08A81813309F00F7EB60190E0F7
S1130E100E94040A111105C034FC18C085E690E054
S1130E2017C0B6018EE290E00E94040A82E0EE242C
S1130E30E394E80EF301E80FF11D8081B60190E020
S1130E400E94040A11508E2D91F7E6CF85E490E0BC
S1130E50B6010E94040A57FC05C04114510439F438
S1130E6004FF05C05194419451088DE201C08BE206
S1130E70B60190E00E94040A80E39AE04916510406
S1130E802CF08F5F5AE0451A5108F7CFB60190E075
S1130E900E94040AB601C201C0960E94040A57C106
S1130EA0833631F0833779F0833509F058C021C097
S1130EB05201E2E0AE0EB11CF2018081898301E0AF
S1130EC010E0230114C05201F2E0AF0EB11CF20194
S1130ED04080518026FF03C0612F70E002C06FEF95
S1130EE07FEFC2012A8B0E94F9098C012A892F778E
S1130EF015C05201F2E0AF0EB11CF20140805180E6
S1130F0026FF03C0612F70E002C06FEF7FEFC201C4
S1130F102A8B0E94EE098C012A892068322E23FD37
S1130F201AC08F2D90E008171907A8F4B60180E2C3
S1130F3090E00E94040AFA94F4CFF20137FC859100
S1130F4037FE81912F01B60190E00E94040AF1104E
S1130F50FA94015011090115110579F7F8C0843686
S1130F6011F0893659F5520127FF09C0F4E0AF0E9C
S1130F70B11CF20160817181828193810AC0F2E027
S1130F80AF0EB11CF20160817181072E000C880B39
S1130F90990B2F76322E97FF09C090958095709506
S1130FA061957F4F8F4F9F4F2068322E2AE030E0AB
S1130FB0A3010E94520AE82EE6183FC0022F85378B
S1130FC021F40F7E2AE030E01DC0097F8F3691F0B6
S1130FD018F4883559F0C5C0803719F0883711F0F6
S1130FE0C0C0006104FF09C0046007C024FF08C03A
S1130FF0066006C028E030E005C020E130E002C011
S113100020E132E0520107FF09C0F4E0AF0EB11C49
S1131010F201608171818281938108C0F2E0AF0E98
S1131020B11CF2016081718180E090E0A3010E9413
S1131030520AE82EE6180F77302E36FE0BC0332DF9
S11310403E7FE11650F434FE0AC032FC08C0332D52
S11310503E7E05C00E2D332D03C00E2D01C0012F81
S113106034FF0CC0FE01EE0DF11D8081803311F4BC
S1131070397E08C032FF05C00E5F04C0832F867816
S113108009F00F5F33FD13C030FF06C01E2D0F158E
S113109018F41F0D101B0F2D0F1568F4B60180E214
S11310A090E03B8B0E94040A0F5F3B89F5CF0F153C
S11310B010F4F01A01C0F12C34FF12C0B60180E321
S11310C090E03B8B0E94040A3B8932FF17C031FD3C
S11310D003C088E790E002C088E590E0B6010CC048
S11310E0832F867859F031FF02C08BE201C080E281
S11310F037FD8DE2B60190E00E94040AE11638F44F
S1131100B60180E390E00E94040A1150F7CFEA94FC
S1131110F301EE0DF11D8081B60190E00E94040AF6
S1131120E110F5CF14C0F4E0FF1558F584E0F81A87
S113113033FE1EC0211026C003FF2AC006E910E0BA
S1131140F32DF0713F2EF8018491811124C0FF200A
S113115009F4E5CCB60180E290E00E94040AFA9416
S1131160F6CFF6018681978126C08FEF9FEF23C0CB
S1131170B60180E290E00E94040AFA94F110F8CFDC
S1131180D9CFF12CB601822D90E00E94040AD4CF6D
S11311900AE910E0D5CF31108052B60190E00E94E8
S11311A0040A0F5F1F4FCFCF23E02F1510F483E005
S11311B0BECFF12CC1CF6396E2E10C94FB082F92D1
S11311C03F924F925F926F927F928F929F92AF92D3
S11311D0BF92CF92DF92EF92FF920F931F93CF9320
S11311E0DF93CDB7DEB7CA1BDB0B0FB6F894DEBFB7
S11311F00FBECDBF09942A88398848885F846E84DD
S11312007D848C849B84AA84B984C884DF80EE8026
S1131210FD800C811B81AA81B981CE0FD11D0FB62F
S1131220F894DEBF0FBECDBFED010895283008F05D
S113123027E03327DA01990F311D87FD916000966D
S11312406105710539F432602E5F3D9330E32A95D0
S1131250E1F708959F3F30F080387105610509F08A
S11312603C5F3C5F3D93913008F08068911DDF93B3
S1131270CF931F930F93FF92EF92192F987F969518
S1131280E92F96959695E90FFF27E850FF4F992788
S11312903327EE24FF24A701E7010590089407945F
S11312A028F4360FE71EF81E491F511D660F771FDD
S11312B0881F991F0694A1F70590079428F4E70E58
S11312C0F81E491F561FC11D770F881F991F661FDF
S11312D00694A1F70590079428F4F80E491F561FA9
S11312E0C71FD11D880F991F661F771F0694A1F78A
S11312F00590079420F4490F561FC71FD81F990F54
S1131300661F771F881F0694A9F78491109517709C
S113131041F0D695C79557954795F794E7941A9554
S1131320C1F7EEE9F0E06894159015913591659157
S1131330959105907FE27395E118F10A430B560BE2
S1131340C90BD009C0F7E10CF11E431F561FC91F7A
S1131350D01D7EF4703311F48A95E6CFE8940150E1
S113136030F0080F0AF40027021708F4202F239501
S1131370022F7A3328F079E37D932A95E9F710C098
S11313807D932A9589F606949795679537951795D1
S11313901794E118F10A430B560BC90BD00998F0C6
S11313A023957E9173957A3308F070E37C93201330
S11313B0B8F77E9170617D9330F0839571E37D93EE
S11313C070E32A95E1F71124EF90FF900F911F919C
S11313D0CF91DF91992787FD90950895FC010590A1
S11313E0615070400110D8F7809590958E0F9F1F23
S11313F00895FC016150704001900110D8F7809568
S113140090958E0F9F1F08950F931F93CF93DF9393
S1131410FB01238121FD03C08FEF9FEF28C022FF32
S113142016C046815781248135814217530744F4FD
S1131430A081B1819D012F5F3F4F318320838C9325
S1131440268137812F5F3F4F3783268310C0EB01FE
S1131450092F182F0084F185E02D0995892BE1F6D9
S11314608E819F8101969F838E83812F902FDF91A0
S1131470CF911F910F910895A0E0B0E0E2E4FAE06B
S11314800C94EF08AE014B5F5F4FFA0161917191CB
S1131490AF0180916A0190916B010E946305E2E0C3
S11314A00C940B09FA01AA27283051F1203181F15B
S11314B0E8946F936E7F6E5F7F4F8F4F9F4FAF4F58
S11314C0B1E03ED0B4E03CD0670F781F891F9A1F6B
S11314D0A11D680F791F8A1F911DA11D6A0F711D1F
S11314E0811D911DA11D20D009F468943F912AE02B
S11314F0269F11243019305D3193DEF6CF01089513
S1131500462F4770405D4193B3E00FD0C9F7F6CF43
S1131510462F4F70405D4A3318F0495D31FD40520B
S1131520419302D0A9F7EACFB4E0A69597958795A1
S113153077956795BA95C9F7009761057105089580
S11315409B01AC010A2E069457954795379527952C
S1131550BA95C9F7620F731F841F951FA01D0895C4
S1071560F894FFCF29
S113156400000003000000007101850100004F4BDE
S11315740041542B5253540A005749464920474FBB
S1131584542049500041542B43574A41503D226D45
S1131594617274696E4370453330315F73706F7474
S11315A4222C225332303136437045220A004154EE
S11315B42B4349504D55583D300A00256409256490
S10B15C40925640925640A00ED
S9030000FC
