S01600005075626C697368436F6D706173732E7372656361
S11300000C944B000C9468000C9468000C946800E9
S11300100C9468000C9468000C9468000C946800BC
S11300200C9468000C9468000C9468000C946800AC
S11300300C9468000C9468000C9468000C9468009C
S11300400C9468000C9468000C9468000C9468008C
S11300500C9468000C9468000C9468000C9468007C
S11300600C9468000C946800084AD73B3BCE016EA0
S113007084BCBFFDC12F3D6C74319ABD56833DDAFB
S11300803D00C77F11BED9E4BB4C3E916BAAAABE0A
S1130090000000803F0011241FBECFEFD8E0DEBF78
S11300A0CDBF11E0A0E0B1E0E4EFFEE002C00590B6
S11300B00D92A832B107D9F721E0A8E2B1E001C05E
S11300C01D92AE32B207E1F70E945F010C947807EB
S11300D00C9400001092B90082E08093B800089557
S11300E094EA9093BC00ECEBF0E090819923ECF758
S11300F09091B900987F983011F09031A1F48093D9
S1130100BB0084E88093BC00ECEBF0E080818823A2
S1130110ECF79091B900987F983139F081E09034F0
S113012029F480E0089581E0089580E00895CF9354
S1130130DF93ECEBF0E024EAA9EBB0E0CBEBD0E00A
S113014034E844E9208390819923ECF79C91987FCB
S1130150983011F09031B1F78883308390819923DE
S1130160ECF79C91987F903211F0983529F44083F4
S1130170908194FDFDCFE6CFDF91CF91089584E97E
S11301808093BC00ECEBF0E0808184FDFDCF08950A
S11301908093BB0084E88093BC00ECEBF0E08081AA
S11301A08823ECF79091B900987F81E0983209F4A4
S11301B080E0089584EC8093BC00ECEBF0E0808157
S11301C08823ECF78091BB00089584E88093BC00F9
S11301D0ECEBF0E080818823ECF78091BB0008957C
S11301E08A3041F4E0ECF0E0908195FFFDCF9DE092
S11301F09093C600E0ECF0E0908195FFFDCF8093F2
S1130200C60080E090E008958CE30E94700080E0D6
S11302100E94C80080E70E94C80080E20E94C800D3
S113022080E00E94C8000E94BF008FEC97E0019715
S1130230F1F700C0000008950F931F93CF93DF934D
S11302408C018CE30E94700083E00E94C8008DE35F
S11302500E9497000E94DA00C82FD0E0DC2FCC2740
S11302600E94DA00C82BF801D183C0830E94DA000F
S1130270C82FD0E0DC2FCC270E94DA00C82BF8016D
S1130280D583C4830E94DA00C82FD0E0DC2FCC27AA
S11302900E94E500C82BF801D383C2830E94BF00EB
S11302A0DF91CF911F910F91089588E18093C10050
S11302B086E08093C20083E38093C4000895CF93C3
S11302C0DF9300D000D000D0CDB7DEB780E091E05E
S11302D090932B0180932A010E9455010E946A0089
S11302E00E9404018EE091E00E9493042FEF81EEBE
S11302F094E0215080409040E1F700C000000F2EB0
S1130300FBE1CF2EF1E0DF2EF02DCE0101960E940D
S11303101C0109811A81EB80FC80B80180E090E027
S11303200E94E2024B015C01B70180E090E00E9470
S1130330E202A50194010E94DB0120E030E044E3E5
S113034053E40E949F032BED3FE049E450E40E94F4
S11303503A020E94AC027F936F938E818F938D81BA
S11303608F93FF92EF921F930F93DF92CF920E948D
S11303707D042FEF81EE94E0215080409040E1F71E
S113038000C000000FB6F894DEBF0FBECDBFBDCFD6
S11303900E944F0360F080E891E009F49EEF0E9410
S11303A0560328F040E851E071F45EEF0CC00C9461
S11303B025030C949003E92FE0780E946E0340F328
S11303C0092E052AB1F3261737074807590738F0CD
S11303D00E2E07F8E02569F0E025E0640AC0EF631B
S11303E007F8009407FADB01B9019D01DC01CA0199
S11303F0AD01EF930E9451020E945D030E940B0223
S11304005F91552339F02BED3FE049E450FD49EC71
S11304100C9411040895DF93DD27B92FBF7740E8CA
S11304205FE31616170648075B0718F4D92F0E94D6
S113043097039F938F937F936F930E940C04E8E636
S1130440F0E00E9428030E945D032F913F914F9199
S11304505F910E94B203DD2351F09058A2EA2AED85
S11304603FE049EC5FE3D0785D270E942804DF91E8
S11304700C945D030E944E020C945D030E9456038B
S113048058F00E944F0340F029F45F3F29F00C9488
S11304901F0351110C9491030C9425030E946E03C5
S11304A068F39923B1F3552391F3951B550BBB279F
S11304B0AA2762177307840738F09F5F5F4F220FE4
S11304C0331F441FAA1FA9F335D00E2E3AF0E0E8DB
S11304D032D091505040E695001CCAF72BD0FE2F25
S11304E029D0660F771F881FBB1F261737074807B9
S11304F0AB07B0E809F0BB0B802DBF01FF27935871
S11305005F4F3AF09E3F510578F00C941F030C9412
S113051091035F3FE4F3983ED4F38695779567950E
S1130520B795F7959F5FC9F7880F911D96958795A5
S113053097F90895E1E0660F771F881FBB1F6217C4
S113054073078407BA0720F0621B730B840BBA0B82
S1130550EE1F88F7E09508950E94B3026894B111E4
S11305600C94910308950E94760388F09F5798F0A5
S1130570B92F9927B751B0F0E1F0660F771F881FA4
S1130580991F1AF0BA95C9F714C0B13091F00E94BE
S11305909003B1E008950C949003672F782F882777
S11305A0B85F39F0B93FCCF3869577956795B395E5
S11305B0D9F73EF490958095709561957F4F8F4F54
S11305C09F4F0895E89409C097FB3EF49095809559
S11305D0709561957F4F8F4F9F4F9923A9F0F92F05
S11305E096E9BB279395F695879577956795B79583
S11305F0F111F8CFFAF4BB0F11F460FF1BC06F5F69
S11306007F4F8F4F9F4F16C0882311F096E911C07A
S1130610772321F09EE8872F762F05C0662371F09B
S113062096E8862F70E060E02AF09A95660F771FAF
S1130630881FDAF7880F9695879597F9089597F9A3
S11306409F6780E870E060E008959FEF80EC089574
S1130650DF93CF931F930F93FF92EF92DF927B016F
S11306608C01689406C0DA2EEF010E94B203FE01E9
S1130670E894A5912591359145915591A6F3EF0103
S11306800E942804FE019701A801DA9469F7DF901B
S1130690EF90FF900F911F91CF91DF910895002467
S11306A00A941616170618060906089500240A94D3
S11306B012161306140605060895092E0394000C59
S11306C011F4882352F0BB0F40F4BF2B11F460FFE8
S11306D004C06F5F7F4F8F4F9F4F089557FD905811
S11306E0440F551F59F05F3F71F04795880F97FBF2
S11306F0991F61F09F3F79F08795089512161306AC
S11307001406551FF2CF4695F1DF08C016161706DA
S11307101806991FF1CF869571056105089408950F
S1130720E894BB2766277727CB0197F908959B01A7
S1130730AC0160E070E080E89FE30C943A020E9410
S1130740B2030C945D030E944F0338F00E945603D9
S113075020F0952311F00C941F030C94250311240D
S11307600C9491030E946E0370F3959FC1F3950F4F
S113077050E0551F629FF001729FBB27F00DB11D21
S1130780639FAA27F00DB11DAA1F649F6627B00DB1
S1130790A11D661F829F2227B00DA11D621F739F9A
S11307A0B00DA11D621F839FA00D611D221F749FA8
S11307B03327A00D611D231F849F600D211D822FEF
S11307C0762F6A2F11249F5750409AF0F1F0882316
S11307D04AF0EE0FFF1FBB1F661F771F881F915043
S11307E05040A9F79E3F510580F00C941F030C94D0
S11307F091035F3FE4F3983ED4F38695779567952C
S1130800B795F795E7959F5FC1F7FE2B880F911D6C
S11308109695879597F908959B01AC010C949F03D5
S11308205058BB27AA270E9428040C945D030E94F9
S11308304F0338F00E94560320F039F49F3F19F417
S113084026F40C9425030EF4E095E7FB0C941F03A7
S1130850E92F0E946E0358F3BA17620773078407DF
S1130860950720F079F4A6F50C9490030EF4E09526
S11308700B2EBA2FA02D0B01B90190010C01CA0156
S1130880A0011124FF27591B99F0593F50F4503E01
S113089068F11A16F040A22F232F342F4427585FF3
S11308A0F3CF469537952795A795F0405395C9F70B
S11308B07EF41F16BA0B620B730B840BBAF09150C3
S11308C0A1F0FF0FBB1F661F771F881FC2F70EC062
S11308D0BA0F621F731F841F48F487957795679535
S11308E0B795F7959E3F08F0B0CF9395880F08F021
S11308F09927EE0F979587950895A0E0B0E0E3E877
S1130900F4E00C945107AE014B5F5F4FFA01619123
S11309107191AF0180912A0190912B010E94C3042F
S1130920E2E00C946D070F931F93CF93DF93E09154
S11309302A01F0912B01238121FF1BC08C01D0E0FF
S1130940C0E0F80181918F0160912A0170912B011F
S1130950DB011896ED91FC911997882331F00995E4
S1130960892B79F3DFEFCFEFECCF8AE00995892B60
S113097019F08FEF9FEF02C08D2F9C2FDF91CF9145
S11309801F910F910895ACE0B0E0E9ECF4E00C9411
S113099041077C016B018A01FC0117821682838165
S11309A081FFBDC1CE0101964C01F7019381F6018F
S11309B093FD859193FF81916F01882309F4ABC165
S11309C0853239F493FD859193FF81916F018532CE
S11309D029F4B70190E00E94AB06E7CF512C312CEB
S11309E020E02032A0F48B3269F030F4803259F0E8
S11309F0833269F420612CC08D3239F0803339F4AC
S1130A00216026C02260246023C0286021C027FD05
S1130A1027C030ED380F3A3078F426FF06C0FAE0EC
S1130A205F9E300D1124532E13C08AE0389E300D82
S1130A301124332E20620CC08E3221F426FD6BC1AA
S1130A40206406C08C3611F4206802C0883641F454
S1130A50F60193FD859193FF81916F018111C1CFBF
S1130A60982F9F7D9554933028F40C5F1F4FFFE31C
S1130A70F9830DC0833631F0833771F0833509F083
S1130A805BC022C0F801808189830E5F1F4F44241C
S1130A904394512C540115C03801F2E06F0E711CBF
S1130AA0F801A080B18026FF03C0652D70E002C06C
S1130AB06FEF7FEFC5012C870E94A0062C018301F4
S1130AC02C852F77222E17C03801F2E06F0E711C8F
S1130AD0F801A080B18026FF03C0652D70E002C03C
S1130AE06FEF7FEFC5012C870E9495062C012C85A2
S1130AF02068222E830123FC1BC0832D90E048161E
S1130B005906B0F4B70180E290E00E94AB063A9433
S1130B10F4CFF50127FC859127FE81915F01B70190
S1130B2090E00E94AB0631103A94F1E04F1A51085C
S1130B304114510471F7E5C0843611F0893639F552
S1130B40F80127FF07C060817181828193810C5F66
S1130B501F4F08C060817181072E000C880B990B10
S1130B600E5F1F4F2F76722E97FF09C090958095C8
S1130B70709561957F4F8F4F9F4F2068722E2AE0AA
S1130B8030E0A4010E94E306A82EA81844C08537CB
S1130B9029F42F7EB22E2AE030E025C0F22FF97F0F
S1130BA0BF2E8F36C1F018F4883579F0B4C0803781
S1130BB019F0883721F0AFC02F2F2061B22EB4FE78
S1130BC00DC08B2D8460B82E09C024FF0AC09F2F4E
S1130BD09660B92E06C028E030E005C020E130E080
S1130BE002C020E132E0F801B7FE07C060817181E4
S1130BF0828193810C5F1F4F06C06081718180E008
S1130C0090E00E5F1F4FA4010E94E306A82EA818CF
S1130C10FB2DFF777F2E76FE0BC0372D3E7FA5146C
S1130C2050F474FE0AC072FC08C0372D3E7E05C025
S1130C30BA2C372D03C0BA2C01C0B52C34FF0DC01B
S1130C40FE01EA0DF11D8081803311F4397E09C063
S1130C5032FF06C0B394B39404C0832F867809F09E
S1130C60B39433FD13C030FF06C05A2CB31418F4E8
S1130C70530C5B18B32CB31468F4B70180E290E012
S1130C803C870E94AB06B3943C85F5CFB31410F4B3
S1130C903B1801C0312C34FF12C0B70180E390E04F
S1130CA03C870E94AB063C8532FF17C031FD03C070
S1130CB088E790E002C088E590E0B7010CC0832F7C
S1130CC0867859F031FF02C08BE201C080E237FD23
S1130CD08DE2B70190E00E94AB06A51438F4B70189
S1130CE080E390E00E94AB065A94F7CFAA94F401F3
S1130CF0EA0DF11D8081B70190E00E94AB06A110BE
S1130D00F5CF332009F451CEB70180E290E00E9480
S1130D10AB063A94F6CFF7018681978102C08FEF34
S1130D209FEF2C96E2E10C945D07FC010590615065
S1130D3070400110D8F7809590958E0F9F1F0895ED
S1130D40FC016150704001900110D8F78095909596
S1130D508E0F9F1F08950F931F93CF93DF93FB0173
S1130D60238121FD03C08FEF9FEF28C022FF16C00F
S1130D7046815781248135814217530744F4A08169
S1130D80B1819D012F5F3F4F318320838C93268156
S1130D9037812F5F3F4F3783268310C0EB01092F24
S1130DA0182F0084F185E02D0995892BE1F68E81B9
S1130DB09F8101969F838E83812F902FDF91CF9106
S1130DC01F910F910895FA01AA27283051F120317B
S1130DD081F1E8946F936E7F6E5F7F4F8F4F9F4FCB
S1130DE0AF4FB1E03ED0B4E03CD0670F781F891F0D
S1130DF09A1FA11D680F791F8A1F911DA11D6A0FDB
S1130E00711D811D911DA11D20D009F468943F918D
S1130E102AE0269F11243019305D3193DEF6CF018C
S1130E200895462F4770405D4193B3E00FD0C9F752
S1130E30F6CF462F4F70405D4A3318F0495D31FDBF
S1130E404052419302D0A9F7EACFB4E0A695979512
S1130E50879577956795BA95C9F7009761057105E8
S1130E6008959B01AC010A2E069457954795379532
S1130E702795BA95C9F7620F731F841F951FA01D8C
S1130E8008952F923F924F925F926F927F928F922A
S1130E909F92AF92BF92CF92DF92EF92FF920F9305
S1130EA01F93CF93DF93CDB7DEB7CA1BDB0B0FB60F
S1130EB0F894DEBF0FBECDBF09942A8839884888CC
S1130EC05F846E847D848C849B84AA84B984C88462
S1130ED0DF80EE80FD800C811B81AA81B981CE0F59
S1130EE0D11D0FB6F894DEBF0FBECDBFED0108953E
S1070EF0F894FFCFA0
S1130EF40000000300000000F0000000000048654A
S1130F046C6C6F20776F726C6421002564202564F7
S10B0F142025642025640A0075
S9030000FC
